{
  "contractName": "NFTCollection",
  "abi": [
    {
      "inputs": [
        {
          "components": [
            {
              "internalType": "uint256",
              "name": "maxSupply",
              "type": "uint256"
            },
            {
              "internalType": "uint96",
              "name": "royalty",
              "type": "uint96"
            }
          ],
          "internalType": "struct NFTCollection.UintArgs",
          "name": "_uints",
          "type": "tuple"
        },
        {
          "internalType": "address",
          "name": "_creator",
          "type": "address"
        },
        {
          "components": [
            {
              "internalType": "string",
              "name": "name",
              "type": "string"
            },
            {
              "internalType": "string",
              "name": "symbol",
              "type": "string"
            },
            {
              "internalType": "string",
              "name": "baseURI",
              "type": "string"
            },
            {
              "internalType": "string",
              "name": "contractURI",
              "type": "string"
            }
          ],
          "internalType": "struct NFTCollection.StringArgs",
          "name": "_strings",
          "type": "tuple"
        },
        {
          "components": [
            {
              "internalType": "address[]",
              "name": "currencies",
              "type": "address[]"
            },
            {
              "internalType": "uint256[]",
              "name": "currenciesPrice",
              "type": "uint256[]"
            },
            {
              "internalType": "address[]",
              "name": "whiteListCurrencies",
              "type": "address[]"
            },
            {
              "internalType": "uint256[]",
              "name": "whiteListCurrenciesPrice",
              "type": "uint256[]"
            },
            {
              "internalType": "bool",
              "name": "isWhiteListed",
              "type": "bool"
            },
            {
              "internalType": "uint256",
              "name": "WhiteListStartTime",
              "type": "uint256"
            },
            {
              "internalType": "uint256",
              "name": "WhiteListEndTime",
              "type": "uint256"
            },
            {
              "internalType": "uint256",
              "name": "maxNFTPerUser",
              "type": "uint256"
            },
            {
              "internalType": "uint256",
              "name": "maxQuantity",
              "type": "uint256"
            }
          ],
          "internalType": "struct NFTCollection.PhaseArgs[]",
          "name": "_phaseArgs",
          "type": "tuple[]"
        }
      ],
      "stateMutability": "nonpayable",
      "type": "constructor"
    },
    {
      "inputs": [],
      "name": "ApprovalCallerNotOwnerNorApproved",
      "type": "error"
    },
    {
      "inputs": [],
      "name": "ApprovalQueryForNonexistentToken",
      "type": "error"
    },
    {
      "inputs": [],
      "name": "BalanceQueryForZeroAddress",
      "type": "error"
    },
    {
      "inputs": [],
      "name": "MintERC2309QuantityExceedsLimit",
      "type": "error"
    },
    {
      "inputs": [],
      "name": "MintToZeroAddress",
      "type": "error"
    },
    {
      "inputs": [],
      "name": "MintZeroQuantity",
      "type": "error"
    },
    {
      "inputs": [],
      "name": "OwnerQueryForNonexistentToken",
      "type": "error"
    },
    {
      "inputs": [],
      "name": "OwnershipNotInitializedForExtraData",
      "type": "error"
    },
    {
      "inputs": [],
      "name": "TransferCallerNotOwnerNorApproved",
      "type": "error"
    },
    {
      "inputs": [],
      "name": "TransferFromIncorrectOwner",
      "type": "error"
    },
    {
      "inputs": [],
      "name": "TransferToNonERC721ReceiverImplementer",
      "type": "error"
    },
    {
      "inputs": [],
      "name": "TransferToZeroAddress",
      "type": "error"
    },
    {
      "inputs": [],
      "name": "URIQueryForNonexistentToken",
      "type": "error"
    },
    {
      "anonymous": false,
      "inputs": [
        {
          "indexed": true,
          "internalType": "address",
          "name": "owner",
          "type": "address"
        },
        {
          "indexed": true,
          "internalType": "address",
          "name": "approved",
          "type": "address"
        },
        {
          "indexed": true,
          "internalType": "uint256",
          "name": "tokenId",
          "type": "uint256"
        }
      ],
      "name": "Approval",
      "type": "event"
    },
    {
      "anonymous": false,
      "inputs": [
        {
          "indexed": true,
          "internalType": "address",
          "name": "owner",
          "type": "address"
        },
        {
          "indexed": true,
          "internalType": "address",
          "name": "operator",
          "type": "address"
        },
        {
          "indexed": false,
          "internalType": "bool",
          "name": "approved",
          "type": "bool"
        }
      ],
      "name": "ApprovalForAll",
      "type": "event"
    },
    {
      "anonymous": false,
      "inputs": [
        {
          "indexed": false,
          "internalType": "uint256",
          "name": "phaseId",
          "type": "uint256"
        },
        {
          "indexed": false,
          "internalType": "address[]",
          "name": "Currencies",
          "type": "address[]"
        },
        {
          "indexed": false,
          "internalType": "uint256[]",
          "name": "currenciesPrice",
          "type": "uint256[]"
        },
        {
          "indexed": false,
          "internalType": "address[]",
          "name": "whiteListCurrencies",
          "type": "address[]"
        },
        {
          "indexed": false,
          "internalType": "uint256[]",
          "name": "whiteListCurrenciesPrice",
          "type": "uint256[]"
        },
        {
          "indexed": false,
          "internalType": "bool",
          "name": "isWhitelisted",
          "type": "bool"
        },
        {
          "indexed": false,
          "internalType": "uint256",
          "name": "WhiteListStartTime",
          "type": "uint256"
        },
        {
          "indexed": false,
          "internalType": "uint256",
          "name": "WhiteListEndTime",
          "type": "uint256"
        },
        {
          "indexed": false,
          "internalType": "uint256",
          "name": "maxNFTPerUser",
          "type": "uint256"
        },
        {
          "indexed": false,
          "internalType": "uint256",
          "name": "maxQuantity",
          "type": "uint256"
        }
      ],
      "name": "CollecctionPhase",
      "type": "event"
    },
    {
      "anonymous": false,
      "inputs": [
        {
          "indexed": true,
          "internalType": "uint256",
          "name": "fromTokenId",
          "type": "uint256"
        },
        {
          "indexed": false,
          "internalType": "uint256",
          "name": "toTokenId",
          "type": "uint256"
        },
        {
          "indexed": true,
          "internalType": "address",
          "name": "from",
          "type": "address"
        },
        {
          "indexed": true,
          "internalType": "address",
          "name": "to",
          "type": "address"
        }
      ],
      "name": "ConsecutiveTransfer",
      "type": "event"
    },
    {
      "anonymous": false,
      "inputs": [
        {
          "indexed": false,
          "internalType": "address",
          "name": "currencys",
          "type": "address"
        },
        {
          "indexed": false,
          "internalType": "uint256",
          "name": "startRange",
          "type": "uint256"
        },
        {
          "indexed": false,
          "internalType": "uint256",
          "name": "endRange",
          "type": "uint256"
        }
      ],
      "name": "MintRange",
      "type": "event"
    },
    {
      "anonymous": false,
      "inputs": [
        {
          "indexed": true,
          "internalType": "address",
          "name": "previousOwner",
          "type": "address"
        },
        {
          "indexed": true,
          "internalType": "address",
          "name": "newOwner",
          "type": "address"
        }
      ],
      "name": "OwnershipTransferred",
      "type": "event"
    },
    {
      "anonymous": false,
      "inputs": [
        {
          "indexed": true,
          "internalType": "address",
          "name": "from",
          "type": "address"
        },
        {
          "indexed": true,
          "internalType": "address",
          "name": "to",
          "type": "address"
        },
        {
          "indexed": true,
          "internalType": "uint256",
          "name": "tokenId",
          "type": "uint256"
        }
      ],
      "name": "Transfer",
      "type": "event"
    },
    {
      "inputs": [],
      "name": "DECIMAL_PRECISION",
      "outputs": [
        {
          "internalType": "uint256",
          "name": "",
          "type": "uint256"
        }
      ],
      "stateMutability": "view",
      "type": "function",
      "constant": true
    },
    {
      "inputs": [
        {
          "internalType": "address",
          "name": "to",
          "type": "address"
        },
        {
          "internalType": "uint256",
          "name": "tokenId",
          "type": "uint256"
        }
      ],
      "name": "approve",
      "outputs": [],
      "stateMutability": "payable",
      "type": "function",
      "payable": true
    },
    {
      "inputs": [
        {
          "internalType": "address",
          "name": "owner",
          "type": "address"
        }
      ],
      "name": "balanceOf",
      "outputs": [
        {
          "internalType": "uint256",
          "name": "",
          "type": "uint256"
        }
      ],
      "stateMutability": "view",
      "type": "function",
      "constant": true
    },
    {
      "inputs": [],
      "name": "contractURI",
      "outputs": [
        {
          "internalType": "string",
          "name": "",
          "type": "string"
        }
      ],
      "stateMutability": "view",
      "type": "function",
      "constant": true
    },
    {
      "inputs": [],
      "name": "creator",
      "outputs": [
        {
          "internalType": "address",
          "name": "",
          "type": "address"
        }
      ],
      "stateMutability": "view",
      "type": "function",
      "constant": true
    },
    {
      "inputs": [
        {
          "internalType": "uint256",
          "name": "tokenId",
          "type": "uint256"
        }
      ],
      "name": "getApproved",
      "outputs": [
        {
          "internalType": "address",
          "name": "",
          "type": "address"
        }
      ],
      "stateMutability": "view",
      "type": "function",
      "constant": true
    },
    {
      "inputs": [
        {
          "internalType": "address",
          "name": "owner",
          "type": "address"
        },
        {
          "internalType": "address",
          "name": "operator",
          "type": "address"
        }
      ],
      "name": "isApprovedForAll",
      "outputs": [
        {
          "internalType": "bool",
          "name": "",
          "type": "bool"
        }
      ],
      "stateMutability": "view",
      "type": "function",
      "constant": true
    },
    {
      "inputs": [],
      "name": "launchpad",
      "outputs": [
        {
          "internalType": "contract INFTLaunchPad",
          "name": "",
          "type": "address"
        }
      ],
      "stateMutability": "view",
      "type": "function",
      "constant": true
    },
    {
      "inputs": [],
      "name": "maxSupply",
      "outputs": [
        {
          "internalType": "uint256",
          "name": "",
          "type": "uint256"
        }
      ],
      "stateMutability": "view",
      "type": "function",
      "constant": true
    },
    {
      "inputs": [],
      "name": "name",
      "outputs": [
        {
          "internalType": "string",
          "name": "",
          "type": "string"
        }
      ],
      "stateMutability": "view",
      "type": "function",
      "constant": true
    },
    {
      "inputs": [
        {
          "internalType": "address",
          "name": "",
          "type": "address"
        }
      ],
      "name": "nftMinted",
      "outputs": [
        {
          "internalType": "uint256",
          "name": "",
          "type": "uint256"
        }
      ],
      "stateMutability": "view",
      "type": "function",
      "constant": true
    },
    {
      "inputs": [],
      "name": "owner",
      "outputs": [
        {
          "internalType": "address",
          "name": "",
          "type": "address"
        }
      ],
      "stateMutability": "view",
      "type": "function",
      "constant": true
    },
    {
      "inputs": [
        {
          "internalType": "uint256",
          "name": "tokenId",
          "type": "uint256"
        }
      ],
      "name": "ownerOf",
      "outputs": [
        {
          "internalType": "address",
          "name": "",
          "type": "address"
        }
      ],
      "stateMutability": "view",
      "type": "function",
      "constant": true
    },
    {
      "inputs": [
        {
          "internalType": "uint256",
          "name": "",
          "type": "uint256"
        }
      ],
      "name": "proceedNonce",
      "outputs": [
        {
          "internalType": "bool",
          "name": "",
          "type": "bool"
        }
      ],
      "stateMutability": "view",
      "type": "function",
      "constant": true
    },
    {
      "inputs": [],
      "name": "renounceOwnership",
      "outputs": [],
      "stateMutability": "nonpayable",
      "type": "function"
    },
    {
      "inputs": [
        {
          "internalType": "uint256",
          "name": "_tokenId",
          "type": "uint256"
        },
        {
          "internalType": "uint256",
          "name": "_salePrice",
          "type": "uint256"
        }
      ],
      "name": "royaltyInfo",
      "outputs": [
        {
          "internalType": "address",
          "name": "",
          "type": "address"
        },
        {
          "internalType": "uint256",
          "name": "",
          "type": "uint256"
        }
      ],
      "stateMutability": "view",
      "type": "function",
      "constant": true
    },
    {
      "inputs": [
        {
          "internalType": "address",
          "name": "from",
          "type": "address"
        },
        {
          "internalType": "address",
          "name": "to",
          "type": "address"
        },
        {
          "internalType": "uint256",
          "name": "tokenId",
          "type": "uint256"
        }
      ],
      "name": "safeTransferFrom",
      "outputs": [],
      "stateMutability": "payable",
      "type": "function",
      "payable": true
    },
    {
      "inputs": [
        {
          "internalType": "address",
          "name": "from",
          "type": "address"
        },
        {
          "internalType": "address",
          "name": "to",
          "type": "address"
        },
        {
          "internalType": "uint256",
          "name": "tokenId",
          "type": "uint256"
        },
        {
          "internalType": "bytes",
          "name": "_data",
          "type": "bytes"
        }
      ],
      "name": "safeTransferFrom",
      "outputs": [],
      "stateMutability": "payable",
      "type": "function",
      "payable": true
    },
    {
      "inputs": [
        {
          "internalType": "address",
          "name": "operator",
          "type": "address"
        },
        {
          "internalType": "bool",
          "name": "approved",
          "type": "bool"
        }
      ],
      "name": "setApprovalForAll",
      "outputs": [],
      "stateMutability": "nonpayable",
      "type": "function"
    },
    {
      "inputs": [],
      "name": "symbol",
      "outputs": [
        {
          "internalType": "string",
          "name": "",
          "type": "string"
        }
      ],
      "stateMutability": "view",
      "type": "function",
      "constant": true
    },
    {
      "inputs": [],
      "name": "tokenCounter",
      "outputs": [
        {
          "internalType": "uint256",
          "name": "",
          "type": "uint256"
        }
      ],
      "stateMutability": "view",
      "type": "function",
      "constant": true
    },
    {
      "inputs": [],
      "name": "totalSupply",
      "outputs": [
        {
          "internalType": "uint256",
          "name": "",
          "type": "uint256"
        }
      ],
      "stateMutability": "view",
      "type": "function",
      "constant": true
    },
    {
      "inputs": [
        {
          "internalType": "address",
          "name": "from",
          "type": "address"
        },
        {
          "internalType": "address",
          "name": "to",
          "type": "address"
        },
        {
          "internalType": "uint256",
          "name": "tokenId",
          "type": "uint256"
        }
      ],
      "name": "transferFrom",
      "outputs": [],
      "stateMutability": "payable",
      "type": "function",
      "payable": true
    },
    {
      "inputs": [
        {
          "internalType": "address",
          "name": "newOwner",
          "type": "address"
        }
      ],
      "name": "transferOwnership",
      "outputs": [],
      "stateMutability": "nonpayable",
      "type": "function"
    },
    {
      "inputs": [
        {
          "components": [
            {
              "internalType": "address[]",
              "name": "currencies",
              "type": "address[]"
            },
            {
              "internalType": "uint256[]",
              "name": "currenciesPrice",
              "type": "uint256[]"
            },
            {
              "internalType": "address[]",
              "name": "whiteListCurrencies",
              "type": "address[]"
            },
            {
              "internalType": "uint256[]",
              "name": "whiteListCurrenciesPrice",
              "type": "uint256[]"
            },
            {
              "internalType": "bool",
              "name": "isWhiteListed",
              "type": "bool"
            },
            {
              "internalType": "uint256",
              "name": "WhiteListStartTime",
              "type": "uint256"
            },
            {
              "internalType": "uint256",
              "name": "WhiteListEndTime",
              "type": "uint256"
            },
            {
              "internalType": "uint256",
              "name": "maxNFTPerUser",
              "type": "uint256"
            },
            {
              "internalType": "uint256",
              "name": "maxQuantity",
              "type": "uint256"
            }
          ],
          "internalType": "struct NFTCollection.PhaseArgs[]",
          "name": "_phaseArgs",
          "type": "tuple[]"
        }
      ],
      "name": "_phases",
      "outputs": [],
      "stateMutability": "nonpayable",
      "type": "function"
    },
    {
      "inputs": [
        {
          "internalType": "uint256",
          "name": "_amount",
          "type": "uint256"
        },
        {
          "internalType": "uint256",
          "name": "_phaseId",
          "type": "uint256"
        }
      ],
      "name": "setMaxNFTPerUser",
      "outputs": [],
      "stateMutability": "nonpayable",
      "type": "function"
    },
    {
      "inputs": [
        {
          "internalType": "uint256",
          "name": "_amount",
          "type": "uint256"
        },
        {
          "internalType": "uint256",
          "name": "_phaseId",
          "type": "uint256"
        }
      ],
      "name": "setMaxQuantity",
      "outputs": [],
      "stateMutability": "nonpayable",
      "type": "function"
    },
    {
      "inputs": [
        {
          "internalType": "uint256",
          "name": "_newSupply",
          "type": "uint256"
        }
      ],
      "name": "setMaxSupply",
      "outputs": [],
      "stateMutability": "nonpayable",
      "type": "function"
    },
    {
      "inputs": [
        {
          "internalType": "uint256",
          "name": "_quantity",
          "type": "uint256"
        },
        {
          "internalType": "uint256",
          "name": "nonce",
          "type": "uint256"
        },
        {
          "internalType": "bytes",
          "name": "_signature",
          "type": "bytes"
        },
        {
          "internalType": "bool",
          "name": "_isWhiteListed",
          "type": "bool"
        },
        {
          "internalType": "address",
          "name": "_currency",
          "type": "address"
        },
        {
          "internalType": "uint256",
          "name": "_phaseId",
          "type": "uint256"
        }
      ],
      "name": "mint",
      "outputs": [],
      "stateMutability": "payable",
      "type": "function",
      "payable": true
    },
    {
      "inputs": [
        {
          "internalType": "uint256",
          "name": "tokenId",
          "type": "uint256"
        }
      ],
      "name": "burn",
      "outputs": [],
      "stateMutability": "nonpayable",
      "type": "function"
    },
    {
      "inputs": [
        {
          "internalType": "uint256",
          "name": "_quantity",
          "type": "uint256"
        }
      ],
      "name": "mintByOwner",
      "outputs": [],
      "stateMutability": "nonpayable",
      "type": "function"
    },
    {
      "inputs": [
        {
          "internalType": "address",
          "name": "_receiver",
          "type": "address"
        },
        {
          "internalType": "address",
          "name": "_currency",
          "type": "address"
        }
      ],
      "name": "withdrawERC20Token",
      "outputs": [],
      "stateMutability": "nonpayable",
      "type": "function"
    },
    {
      "inputs": [
        {
          "internalType": "address",
          "name": "_receiver",
          "type": "address"
        }
      ],
      "name": "withdrawBNB",
      "outputs": [],
      "stateMutability": "nonpayable",
      "type": "function"
    },
    {
      "inputs": [
        {
          "internalType": "bytes4",
          "name": "interfaceId",
          "type": "bytes4"
        }
      ],
      "name": "supportsInterface",
      "outputs": [
        {
          "internalType": "bool",
          "name": "",
          "type": "bool"
        }
      ],
      "stateMutability": "view",
      "type": "function",
      "constant": true
    },
    {
      "inputs": [
        {
          "internalType": "uint256",
          "name": "tokenId",
          "type": "uint256"
        }
      ],
      "name": "tokenURI",
      "outputs": [
        {
          "internalType": "string",
          "name": "",
          "type": "string"
        }
      ],
      "stateMutability": "view",
      "type": "function",
      "constant": true
    }
  ],
  "bytecode": "0x60c06040526005608090815264173539b7b760d91b60a052600d90620000269082620008f9565b503480156200003457600080fd5b506040516200449638038062004496833981016040819052620000579162000e7f565b8151602083015160026200006c8382620008f9565b5060036200007b8282620008f9565b50506001600055506200008e3362000133565b8351600b55600f80546001600160a01b0319166001600160a01b0385161790556040820151600c90620000c29082620008f9565b506060820151600e90620000d79082620008f9565b50601280546001600160a01b03191633179055600f54602085015162000107916001600160a01b03169062000185565b600f546200011e906001600160a01b031662000133565b62000129816200028a565b5050505062001087565b600a80546001600160a01b038381166001600160a01b0319831681179093556040519116919082907f8be0079c531659141344cd1fd0a4f28419497f9722a3daafe3b4186f6b6457e090600090a35050565b6127106001600160601b0382161115620001f95760405162461bcd60e51b815260206004820152602a60248201527f455243323938313a20726f79616c7479206665652077696c6c206578636565646044820152692073616c65507269636560b01b60648201526084015b60405180910390fd5b6001600160a01b038216620002515760405162461bcd60e51b815260206004820152601960248201527f455243323938313a20696e76616c6964207265636569766572000000000000006044820152606401620001f0565b604080518082019091526001600160a01b039092168083526001600160601b039091166020909201829052600160a01b90910217600855565b60005b81518110156200085057818181518110620002ac57620002ac62000f43565b60200260200101516020015151828281518110620002ce57620002ce62000f43565b6020026020010151600001515114620002e657600080fd5b818181518110620002fb57620002fb62000f43565b602002602001015160600151518282815181106200031d576200031d62000f43565b60200260200101516040015151146200033557600080fd5b60005b8282815181106200034d576200034d62000f43565b60200260200101516000015151811015620005015782828151811062000377576200037762000f43565b602002602001015160200151818151811062000397576200039762000f43565b6020026020010151601460008481526020019081526020016000206000016000858581518110620003cc57620003cc62000f43565b6020026020010151600001518481518110620003ec57620003ec62000f43565b60200260200101516001600160a01b03166001600160a01b03168152602001908152602001600020819055508282815181106200042d576200042d62000f43565b60200260200101516020015181815181106200044d576200044d62000f43565b6020026020010151600003620004ec5760016014600084815260200190815260200160002060020160008585815181106200048c576200048c62000f43565b6020026020010151600001518481518110620004ac57620004ac62000f43565b60200260200101516001600160a01b03166001600160a01b0316815260200190815260200160002060006101000a81548160ff0219169083151502179055505b80620004f88162000f59565b91505062000338565b5060005b8282815181106200051a576200051a62000f43565b60200260200101516040015151811015620006ce5782828151811062000544576200054462000f43565b602002602001015160600151818151811062000564576200056462000f43565b602002602001015160146000848152602001908152602001600020600101600085858151811062000599576200059962000f43565b6020026020010151604001518481518110620005b957620005b962000f43565b60200260200101516001600160a01b03166001600160a01b0316815260200190815260200160002081905550828281518110620005fa57620005fa62000f43565b60200260200101516060015181815181106200061a576200061a62000f43565b6020026020010151600003620006b957600160146000848152602001908152602001600020600301600085858151811062000659576200065962000f43565b602002602001015160400151848151811062000679576200067962000f43565b60200260200101516001600160a01b03166001600160a01b0316815260200190815260200160002060006101000a81548160ff0219169083151502179055505b80620006c58162000f59565b91505062000505565b507f6d19ee29c14c0073cdcdf8e7023c7340d14360da51687b8ad0f82666d568c17c8183838151811062000706576200070662000f43565b60200260200101516000015184848151811062000727576200072762000f43565b60200260200101516020015185858151811062000748576200074862000f43565b60200260200101516040015186868151811062000769576200076962000f43565b6020026020010151606001518787815181106200078a576200078a62000f43565b602002602001015160800151888881518110620007ab57620007ab62000f43565b602002602001015160a00151898981518110620007cc57620007cc62000f43565b602002602001015160c001518a8a81518110620007ed57620007ed62000f43565b602002602001015160e001518b8b815181106200080e576200080e62000f43565b60200260200101516101000151604051620008339a9998979695949392919062000ff9565b60405180910390a180620008478162000f59565b9150506200028d565b5050565b634e487b7160e01b600052604160045260246000fd5b600181811c908216806200087f57607f821691505b602082108103620008a057634e487b7160e01b600052602260045260246000fd5b50919050565b601f821115620008f457600081815260208120601f850160051c81016020861015620008cf5750805b601f850160051c820191505b81811015620008f057828155600101620008db565b5050505b505050565b81516001600160401b0381111562000915576200091562000854565b6200092d816200092684546200086a565b84620008a6565b602080601f8311600181146200096557600084156200094c5750858301515b600019600386901b1c1916600185901b178555620008f0565b600085815260208120601f198616915b82811015620009965788860151825594840194600190910190840162000975565b5085821015620009b55787850151600019600388901b60f8161c191681555b5050505050600190811b01905550565b604051608081016001600160401b0381118282101715620009ea57620009ea62000854565b60405290565b60405161012081016001600160401b0381118282101715620009ea57620009ea62000854565b604080519081016001600160401b0381118282101715620009ea57620009ea62000854565b604051601f8201601f191681016001600160401b038111828210171562000a665762000a6662000854565b604052919050565b80516001600160a01b038116811462000a8657600080fd5b919050565b600082601f83011262000a9d57600080fd5b81516001600160401b0381111562000ab95762000ab962000854565b602062000acf601f8301601f1916820162000a3b565b828152858284870101111562000ae457600080fd5b60005b8381101562000b0457858101830151828201840152820162000ae7565b506000928101909101919091529392505050565b60006080828403121562000b2b57600080fd5b62000b35620009c5565b82519091506001600160401b038082111562000b5057600080fd5b62000b5e8583860162000a8b565b8352602084015191508082111562000b7557600080fd5b62000b838583860162000a8b565b6020840152604084015191508082111562000b9d57600080fd5b62000bab8583860162000a8b565b6040840152606084015191508082111562000bc557600080fd5b5062000bd48482850162000a8b565b60608301525092915050565b60006001600160401b0382111562000bfc5762000bfc62000854565b5060051b60200190565b600082601f83011262000c1857600080fd5b8151602062000c3162000c2b8362000be0565b62000a3b565b82815260059290921b8401810191818101908684111562000c5157600080fd5b8286015b8481101562000c775762000c698162000a6e565b835291830191830162000c55565b509695505050505050565b600082601f83011262000c9457600080fd5b8151602062000ca762000c2b8362000be0565b82815260059290921b8401810191818101908684111562000cc757600080fd5b8286015b8481101562000c77578051835291830191830162000ccb565b8051801515811462000a8657600080fd5b600082601f83011262000d0757600080fd5b8151602062000d1a62000c2b8362000be0565b82815260059290921b8401810191818101908684111562000d3a57600080fd5b8286015b8481101562000c775780516001600160401b038082111562000d605760008081fd5b90880190610120828b03601f190181131562000d7c5760008081fd5b62000d86620009f0565b878401518381111562000d995760008081fd5b62000da98d8a8388010162000c06565b8252506040808501518481111562000dc15760008081fd5b62000dd18e8b8389010162000c82565b8a840152506060808601518581111562000deb5760008081fd5b62000dfb8f8c838a010162000c06565b838501525060809150818601518581111562000e175760008081fd5b62000e278f8c838a010162000c82565b82850152505060a0935062000e3e84860162000ce4565b9082015260c0848101519382019390935260e08085015193820193909352610100808501519382019390935292015190820152835291830191830162000d3e565b60008060008084860360a081121562000e9757600080fd5b604081121562000ea657600080fd5b5062000eb162000a16565b8551815260208601516001600160601b038116811462000ed057600080fd5b6020820152935062000ee56040860162000a6e565b60608601519093506001600160401b038082111562000f0357600080fd5b62000f118883890162000b18565b9350608087015191508082111562000f2857600080fd5b5062000f378782880162000cf5565b91505092959194509250565b634e487b7160e01b600052603260045260246000fd5b60006001820162000f7a57634e487b7160e01b600052601160045260246000fd5b5060010190565b600081518084526020808501945080840160005b8381101562000fbc5781516001600160a01b03168752958201959082019060010162000f95565b509495945050505050565b600081518084526020808501945080840160005b8381101562000fbc5781518752958201959082019060010162000fdb565b60006101408c8352806020840152620010158184018d62000f81565b905082810360408401526200102b818c62000fc7565b9050828103606084015262001041818b62000f81565b9050828103608084015262001057818a62000fc7565b97151560a0840152505060c081019490945260e08401929092526101008301526101209091015295945050505050565b6133ff80620010976000396000f3fe6080604052600436106102045760003560e01c8063715018a611610118578063b88d4fde116100a0578063e8a3d4851161006f578063e8a3d485146105d2578063e985e9c5146105e7578063ebacc47914610607578063ecfbe70c1461061a578063f2fde38b1461063a57600080fd5b8063b88d4fde14610573578063c87b56dd14610586578063d082e381146105a6578063d5abeb01146105bc57600080fd5b80638da5cb5b116100e75780638da5cb5b146104eb57806395d89b4114610509578063a0d401451461051e578063a20baee61461053e578063a22cb4651461055357600080fd5b8063715018a614610466578063726094711461047b578063757000f71461049b5780638447a8bc146104bb57600080fd5b806323b872dd1161019b57806342842e0e1161016a57806342842e0e146103d357806342966c68146103e65780636352211e146104065780636f8b44b01461042657806370a082311461044657600080fd5b806323b872dd146103345780632a55205a146103475780632a944b19146103865780632f6f92b3146103a657600080fd5b8063081812fc116101d7578063081812fc146102b8578063095ea7b3146102d857806318160ddd146102ed5780631c087d181461031457600080fd5b806301ffc9a71461020957806302669b521461023e57806302d05d3f1461027657806306fdde0314610296575b600080fd5b34801561021557600080fd5b506102296102243660046129ab565b61065a565b60405190151581526020015b60405180910390f35b34801561024a57600080fd5b5060125461025e906001600160a01b031681565b6040516001600160a01b039091168152602001610235565b34801561028257600080fd5b50600f5461025e906001600160a01b031681565b3480156102a257600080fd5b506102ab61067a565b6040516102359190612a18565b3480156102c457600080fd5b5061025e6102d3366004612a2b565b61070c565b6102eb6102e6366004612a69565b610750565b005b3480156102f957600080fd5b5060015460005403600019015b604051908152602001610235565b34801561032057600080fd5b506102eb61032f366004612a95565b6107f0565b6102eb610342366004612ab7565b61080c565b34801561035357600080fd5b50610367610362366004612a95565b61099d565b604080516001600160a01b039093168352602083019190915201610235565b34801561039257600080fd5b506102eb6103a1366004612a2b565b610a49565b3480156103b257600080fd5b506103066103c1366004612af8565b60136020526000908152604090205481565b6102eb6103e1366004612ab7565b610aae565b3480156103f257600080fd5b506102eb610401366004612a2b565b610ace565b34801561041257600080fd5b5061025e610421366004612a2b565b610b4e565b34801561043257600080fd5b506102eb610441366004612a2b565b610b59565b34801561045257600080fd5b50610306610461366004612af8565b610be2565b34801561047257600080fd5b506102eb610c31565b34801561048757600080fd5b506102eb610496366004612af8565b610c45565b3480156104a757600080fd5b506102eb6104b6366004612a95565b610c8f565b3480156104c757600080fd5b506102296104d6366004612a2b565b60106020526000908152604090205460ff1681565b3480156104f757600080fd5b50600a546001600160a01b031661025e565b34801561051557600080fd5b506102ab610cab565b34801561052a57600080fd5b506102eb610539366004612c92565b610cba565b34801561054a57600080fd5b50610306606481565b34801561055f57600080fd5b506102eb61056e366004612e2e565b611211565b6102eb610581366004612e67565b61127d565b34801561059257600080fd5b506102ab6105a1366004612a2b565b6112c7565b3480156105b257600080fd5b5061030660115481565b3480156105c857600080fd5b50610306600b5481565b3480156105de57600080fd5b506102ab61134e565b3480156105f357600080fd5b50610229610602366004612f2b565b6113dc565b6102eb610615366004612f59565b61140a565b34801561062657600080fd5b506102eb610635366004612f2b565b611b3b565b34801561064657600080fd5b506102eb610655366004612af8565b611cdf565b600061066582611d55565b80610674575061067482611da3565b92915050565b6060600280546106899061300a565b80601f01602080910402602001604051908101604052809291908181526020018280546106b59061300a565b80156107025780601f106106d757610100808354040283529160200191610702565b820191906000526020600020905b8154815290600101906020018083116106e557829003601f168201915b5050505050905090565b600061071782611dd8565b610734576040516333d1c03960e21b815260040160405180910390fd5b506000908152600660205260409020546001600160a01b031690565b600061075b82610b4e565b9050336001600160a01b038216146107945761077781336113dc565b610794576040516367d9dca160e11b815260040160405180910390fd5b60008281526006602052604080822080546001600160a01b0319166001600160a01b0387811691821790925591518593918516917f8c5be1e5ebec7d5bd14f71427d1e84f3dd0314c0f7b2291e5b200ac8c7c3b92591a4505050565b6107f8611e0d565b600090815260146020526040902060090155565b600061081782611e67565b9050836001600160a01b0316816001600160a01b03161461084a5760405162a1148160e81b815260040160405180910390fd5b600082815260066020526040902080546108768187335b6001600160a01b039081169116811491141790565b6108a15761088486336113dc565b6108a157604051632ce44b5f60e11b815260040160405180910390fd5b6001600160a01b0385166108c857604051633a954ecd60e21b815260040160405180910390fd5b80156108d357600082555b6001600160a01b038681166000908152600560205260408082208054600019019055918716808252919020805460010190554260a01b17600160e11b17600085815260046020526040812091909155600160e11b84169003610965576001840160008181526004602052604081205490036109635760005481146109635760008181526004602052604090208490555b505b83856001600160a01b0316876001600160a01b03166000805160206133aa83398151915260405160405180910390a45b505050505050565b60008281526009602090815260408083208151808301909252546001600160a01b038116808352600160a01b9091046001600160601b0316928201929092528291610a125750604080518082019091526008546001600160a01b0381168252600160a01b90046001600160601b031660208201525b602081015160009061271090610a31906001600160601b03168761305a565b610a3b9190613071565b915196919550909350505050565b610a51611e0d565b600b5481601154610a629190613093565b1115610a895760405162461bcd60e51b8152600401610a80906130a6565b60405180910390fd5b8060116000828254610a9b9190613093565b90915550610aab90503382611edd565b50565b610ac98383836040518060200160405280600081525061127d565b505050565b33610ad882610b4e565b6001600160a01b031614610b435760405162461bcd60e51b815260206004820152602c60248201527f4e4654436f6c6c656374696f6e3a2043616c6c6572206973206e6f742074686560448201526b103a37b5b2b71037bbb732b960a11b6064820152608401610a80565b610aab816000611fb7565b600061067482611e67565b610b61611e0d565b600b5481108015610b7457506011548110155b610bdd5760405162461bcd60e51b815260206004820152603460248201527f4e4654436f6c6c656374696f6e3a20537570706c792053686f756c64206265206044820152736c657373207468616e204d617820537570706c7960601b6064820152608401610a80565b600b55565b60006001600160a01b038216610c0b576040516323d3ad8160e21b815260040160405180910390fd5b506001600160a01b031660009081526005602052604090205467ffffffffffffffff1690565b610c39611e0d565b610c4360006120ef565b565b610c4d611e0d565b806001600160a01b03166108fc610c6330610be2565b6040518115909202916000818181858888f19350505050158015610c8b573d6000803e3d6000fd5b5050565b610c97611e0d565b6000908152601460205260409020600a0155565b6060600380546106899061300a565b60005b8151811015610c8b57818181518110610cd857610cd86130f0565b60200260200101516020015151828281518110610cf757610cf76130f0565b6020026020010151600001515114610d0e57600080fd5b818181518110610d2057610d206130f0565b60200260200101516060015151828281518110610d3f57610d3f6130f0565b6020026020010151604001515114610d5657600080fd5b60005b828281518110610d6b57610d6b6130f0565b60200260200101516000015151811015610f0257828281518110610d9157610d916130f0565b6020026020010151602001518181518110610dae57610dae6130f0565b6020026020010151601460008481526020019081526020016000206000016000858581518110610de057610de06130f0565b6020026020010151600001518481518110610dfd57610dfd6130f0565b60200260200101516001600160a01b03166001600160a01b0316815260200190815260200160002081905550828281518110610e3b57610e3b6130f0565b6020026020010151602001518181518110610e5857610e586130f0565b6020026020010151600003610ef0576001601460008481526020019081526020016000206002016000858581518110610e9357610e936130f0565b6020026020010151600001518481518110610eb057610eb06130f0565b60200260200101516001600160a01b03166001600160a01b0316815260200190815260200160002060006101000a81548160ff0219169083151502179055505b80610efa81613106565b915050610d59565b5060005b828281518110610f1857610f186130f0565b602002602001015160400151518110156110af57828281518110610f3e57610f3e6130f0565b6020026020010151606001518181518110610f5b57610f5b6130f0565b6020026020010151601460008481526020019081526020016000206001016000858581518110610f8d57610f8d6130f0565b6020026020010151604001518481518110610faa57610faa6130f0565b60200260200101516001600160a01b03166001600160a01b0316815260200190815260200160002081905550828281518110610fe857610fe86130f0565b6020026020010151606001518181518110611005576110056130f0565b602002602001015160000361109d576001601460008481526020019081526020016000206003016000858581518110611040576110406130f0565b602002602001015160400151848151811061105d5761105d6130f0565b60200260200101516001600160a01b03166001600160a01b0316815260200190815260200160002060006101000a81548160ff0219169083151502179055505b806110a781613106565b915050610f06565b507f6d19ee29c14c0073cdcdf8e7023c7340d14360da51687b8ad0f82666d568c17c818383815181106110e4576110e46130f0565b602002602001015160000151848481518110611102576111026130f0565b602002602001015160200151858581518110611120576111206130f0565b60200260200101516040015186868151811061113e5761113e6130f0565b60200260200101516060015187878151811061115c5761115c6130f0565b60200260200101516080015188888151811061117a5761117a6130f0565b602002602001015160a00151898981518110611198576111986130f0565b602002602001015160c001518a8a815181106111b6576111b66130f0565b602002602001015160e001518b8b815181106111d4576111d46130f0565b602002602001015161010001516040516111f79a99989796959493929190613193565b60405180910390a18061120981613106565b915050610cbd565b3360008181526007602090815260408083206001600160a01b03871680855290835292819020805460ff191686151590811790915590519081529192917f17307eab39ab6107e8899845ad3d59bd9653f200f220920489ca2b5937696c31910160405180910390a35050565b61128884848461080c565b6001600160a01b0383163b156112c1576112a484848484612141565b6112c1576040516368d2bf6b60e11b815260040160405180910390fd5b50505050565b60606112d282611dd8565b6112ef57604051630a14c4b560e41b815260040160405180910390fd5b600c80546112fc9061300a565b905060000361131a5760405180602001604052806000815250610674565b600c6113258361222c565b600d604051602001611339939291906132b6565b60405160208183030381529060405292915050565b600e805461135b9061300a565b80601f01602080910402602001604051908101604052809291908181526020018280546113879061300a565b80156113d45780601f106113a9576101008083540402835291602001916113d4565b820191906000526020600020905b8154815290600101906020018083116113b757829003601f168201915b505050505081565b6001600160a01b03918216600090815260076020908152604080832093909416825291909152205460ff1690565b6000601154600161141b9190613093565b905060008860115461142d9190613093565b60008481526014602052604090206005015490915042118015611460575060008381526014602052604090206006015442105b6114b85760405162461bcd60e51b815260206004820152602360248201527f4e4654436f6c6c656374696f6e3a205068617365206e6f7420656e646564207960448201526232ba1760e91b6064820152608401610a80565b600b54896011546114c99190613093565b11156114e75760405162461bcd60e51b8152600401610a80906130a6565b88601160008282546114f99190613093565b909155505060008381526014602090815260408083206009015433845260139092529091205461152a908b90613093565b11156115785760405162461bcd60e51b815260206004820181905260248201527f4e4654436f6c6c656374696f6e3a204d6178206c696d697420726561636865646044820152606401610a80565b60008881526010602052604090205460ff16156115e55760405162461bcd60e51b815260206004820152602560248201527f4e4654436f6c6c656374696f6e3a204e6f6e636520616c72656164792070726f604482015264636565642160d81b6064820152608401610a80565b60008911801561160657506000838152601460205260409020600a01548911155b61165e5760405162461bcd60e51b815260206004820152602360248201527f4e4654436f6c6c656374696f6e3a204d6178207175616e7469747920726561636044820152621a195960ea1b6064820152608401610a80565b60006116a4338a888b8b8080601f0160208091040260200160405190810160405280939291908181526020018383808284376000920191909152508b9250612270915050565b90508080156116c457506000848152601460205260409020600701544210155b80156116e157506000848152601460205260409020600801544211155b156118935760008481526014602090815260408083206001600160a01b038916845290915290205415158061173b575060008481526014602090815260408083206001600160a01b038916845260020190915290205460ff165b6117ad5760405162461bcd60e51b815260206004820152603b60248201527f4e4654436f6c6c656374696f6e3a2043757272656e6379206e6f74205375707060448201527f6f7274656420666f722077686974654c697374206d696e74696e6700000000006064820152608401610a80565b60008481526014602090815260408083206001600160a01b0389168452600101909152902054801561188d5760006117e48761236e565b90506001600160a01b038716611877576117fe8c8361305a565b3410156118685760405162461bcd60e51b815260206004820152603260248201527f4e4654436f6c6c656374696f6e3a2057686974656c697374656420616d6f756e6044820152713a1034b99034b739bab33334b1b4b2b73a1760711b6064820152608401610a80565b6118728134612457565b61188b565b61188b816118858e8561305a565b89612549565b505b50611a9d565b60008481526014602090815260408083206001600160a01b03891684529091529020541515806118e8575060008481526014602090815260408083206001600160a01b038916845260020190915290205460ff165b61195a5760405162461bcd60e51b815260206004820152603860248201527f4e4654436f6c6c656374696f6e3a2043757272656e6379206e6f74205375707060448201527f6f7274656420666f72207075626c6963206d696e74696e6700000000000000006064820152608401610a80565b60008481526014602090815260408083206001600160a01b03891684529091529020548015611a9b57600061198e8761236e565b6000878152601460205260409020600801549091504211611a065760405162461bcd60e51b815260206004820152602c60248201527f4e4654436f6c6c656374696f6e3a2057686974656c6973742073616c65206e6f60448201526b3a1032b73232b2103cb2ba1760a11b6064820152608401610a80565b6001600160a01b038716611a8b57611a1e8c8361305a565b341015611a7c5760405162461bcd60e51b815260206004820152602660248201527f4e4654436f6c6c656374696f6e3a20616d6f756e7420697320696e737566666960448201526531b4b2b73a1760d11b6064820152608401610a80565b611a868134612457565b611a99565b611a99816118858e8561305a565b505b505b611aa7338b611edd565b33600090815260136020526040812080548c9290611ac6908490613093565b9091555050600089815260106020908152604091829020805460ff1916600117905581516001600160a01b03881681529081018590529081018390527fa3d5df294416eb7f61965311b76c3613ecd506a25bc1dfcba7bbb191ce0182749060600160405180910390a150505050505050505050565b611b43611e0d565b6040516370a0823160e01b815230600482015281906000906001600160a01b038316906370a0823190602401602060405180830381865afa158015611b8c573d6000803e3d6000fd5b505050506040513d601f19601f82011682018060405250810190611bb091906132e9565b11611bfd5760405162461bcd60e51b815260206004820181905260248201527f4e4654436f6c6c656374696f6e3a20496e73756666696369656e742066756e646044820152606401610a80565b6040516370a0823160e01b81523060048201526001600160a01b0382169063a9059cbb90859083906370a0823190602401602060405180830381865afa158015611c4b573d6000803e3d6000fd5b505050506040513d601f19601f82011682018060405250810190611c6f91906132e9565b6040516001600160e01b031960e085901b1681526001600160a01b03909216600483015260248201526044015b6020604051808303816000875af1158015611cbb573d6000803e3d6000fd5b505050506040513d601f19601f820116820180604052508101906112c19190613302565b611ce7611e0d565b6001600160a01b038116611d4c5760405162461bcd60e51b815260206004820152602660248201527f4f776e61626c653a206e6577206f776e657220697320746865207a65726f206160448201526564647265737360d01b6064820152608401610a80565b610aab816120ef565b60006301ffc9a760e01b6001600160e01b031983161480611d8657506380ac58cd60e01b6001600160e01b03198316145b806106745750506001600160e01b031916635b5e139f60e01b1490565b60006001600160e01b0319821663152a902d60e11b148061067457506301ffc9a760e01b6001600160e01b0319831614610674565b600081600111158015611dec575060005482105b8015610674575050600090815260046020526040902054600160e01b161590565b600a546001600160a01b03163314610c435760405162461bcd60e51b815260206004820181905260248201527f4f776e61626c653a2063616c6c6572206973206e6f7420746865206f776e65726044820152606401610a80565b60008180600111611ec457600054811015611ec45760008181526004602052604081205490600160e01b82169003611ec2575b80600003611ebb575060001901600081815260046020526040902054611e9a565b9392505050565b505b604051636f96cda160e11b815260040160405180910390fd5b6000805490829003611f025760405163b562e8dd60e01b815260040160405180910390fd5b6001600160a01b03831660008181526005602090815260408083208054680100000000000000018802019055848352600490915281206001851460e11b4260a01b178317905582840190839083906000805160206133aa8339815191528180a4600183015b818114611f8d57808360006000805160206133aa833981519152600080a4600101611f67565b5081600003611fae57604051622e076360e81b815260040160405180910390fd5b60005550505050565b6000611fc283611e67565b905080600080611fe086600090815260066020526040902080549091565b91509150841561202057611ff5818433610861565b6120205761200383336113dc565b61202057604051632ce44b5f60e11b815260040160405180910390fd5b801561202b57600082555b6001600160a01b038316600081815260056020526040902080546fffffffffffffffffffffffffffffffff0190554260a01b17600360e01b17600087815260046020526040812091909155600160e11b851690036120b9576001860160008181526004602052604081205490036120b75760005481146120b75760008181526004602052604090208590555b505b60405186906000906001600160a01b038616906000805160206133aa833981519152908390a45050600180548101905550505050565b600a80546001600160a01b038381166001600160a01b0319831681179093556040519116919082907f8be0079c531659141344cd1fd0a4f28419497f9722a3daafe3b4186f6b6457e090600090a35050565b604051630a85bd0160e11b81526000906001600160a01b0385169063150b7a029061217690339089908890889060040161331f565b6020604051808303816000875af19250505080156121b1575060408051601f3d908101601f191682019092526121ae9181019061335c565b60015b61220f573d8080156121df576040519150601f19603f3d011682016040523d82523d6000602084013e6121e4565b606091505b508051600003612207576040516368d2bf6b60e11b815260040160405180910390fd5b805181602001fd5b6001600160e01b031916630a85bd0160e11b149050949350505050565b606060a06040510180604052602081039150506000815280825b600183039250600a81066030018353600a9004806122465750819003601f19909101908152919050565b6012546040516bffffffffffffffffffffffff1930606090811b8216602084015292831b811660348301529187901b9091166048820152605c810185905283151560f81b607c820152607d81018290526000908190609d0160405160208183030381529060405280519060200120905060006122ec8286612793565b90506122f6612853565b6001600160a01b0316816001600160a01b0316146123625760405162461bcd60e51b8152602060048201526024808201527f4e4654436f6c6c656374696f6e3a2055736572206973206e6f742076657269666044820152636965642160e01b6064820152608401610a80565b50939695505050505050565b6012546040516327e5684d60e01b81526001600160a01b03838116600483015260009283929116906327e5684d90602401602060405180830381865afa1580156123bc573d6000803e3d6000fd5b505050506040513d601f19601f820116820180604052508101906123e091906132e9565b9050806000036124455760405162461bcd60e51b815260206004820152602a60248201527f4e4654436f6c6c656374696f6e3a2043757272656e637920646f65736e27742060448201526939bab83837b93a32b21760b11b6064820152608401610a80565b60008112156106745750600092915050565b811561250f57600061246a60648061305a565b612474848461305a565b61247e9190613071565b90506124886128c6565b6001600160a01b03166108fc829081150290604051600060405180830381858888f193505050501580156124c0573d6000803e3d6000fd5b5060006124cd8284613379565b600f546040519192506001600160a01b03169082156108fc029083906000818181858888f19350505050158015612508573d6000803e3d6000fd5b5050505050565b600f546040516001600160a01b039091169082156108fc029083906000818181858888f19350505050158015610ac9573d6000803e3d6000fd5b604051636eb1769f60e11b815233600482015230602482015282906001600160a01b0383169063dd62ed3e90604401602060405180830381865afa158015612595573d6000803e3d6000fd5b505050506040513d601f19601f820116820180604052508101906125b991906132e9565b101561261a5760405162461bcd60e51b815260206004820152602a60248201527f4e4654436f6c6c656374696f6e3a20496e73756666696369656e742066756e6460448201526920616c6c6f77616e636560b01b6064820152608401610a80565b821561275a57600061262d60648061305a565b612637858561305a565b6126419190613071565b9050816001600160a01b03166323b872dd3361265b6128c6565b6040516001600160e01b031960e085901b1681526001600160a01b03928316600482015291166024820152604481018490526064016020604051808303816000875af11580156126af573d6000803e3d6000fd5b505050506040513d601f19601f820116820180604052508101906126d39190613302565b5060006126e08285613379565b6040516323b872dd60e01b8152336004820152306024820152604481018290529091506001600160a01b038416906323b872dd906064016020604051808303816000875af1158015612736573d6000803e3d6000fd5b505050506040513d601f19601f820116820180604052508101906109959190613302565b6040516323b872dd60e01b8152336004820152306024820152604481018390526001600160a01b038216906323b872dd90606401611c9c565b6000806000806127a285612910565b6040517f19457468657265756d205369676e6564204d6573736167653a0a3332000000006020820152603c81018a90529295509093509150600190605c0160408051601f198184030181528282528051602091820120600084529083018083525260ff841690820152606081018590526080810184905260a0016020604051602081039080840390855afa15801561283e573d6000803e3d6000fd5b5050604051601f190151979650505050505050565b60125460408051631719a22960e11b815290516000926001600160a01b031691632e3344529160048083019260209291908290030181865afa15801561289d573d6000803e3d6000fd5b505050506040513d601f19601f820116820180604052508101906128c1919061338c565b905090565b60125460408051632844fbcb60e11b815290516000926001600160a01b031691635089f7969160048083019260209291908290030181865afa15801561289d573d6000803e3d6000fd5b600080600083516041146129775760405162461bcd60e51b815260206004820152602860248201527f4e4654436f6c6c656374696f6e3a20696e76616c6964207369676e6174757265604482015267103632b733ba341760c11b6064820152608401610a80565b50505060208101516040820151606090920151909260009190911a90565b6001600160e01b031981168114610aab57600080fd5b6000602082840312156129bd57600080fd5b8135611ebb81612995565b60005b838110156129e35781810151838201526020016129cb565b50506000910152565b60008151808452612a048160208601602086016129c8565b601f01601f19169290920160200192915050565b602081526000611ebb60208301846129ec565b600060208284031215612a3d57600080fd5b5035919050565b6001600160a01b0381168114610aab57600080fd5b8035612a6481612a44565b919050565b60008060408385031215612a7c57600080fd5b8235612a8781612a44565b946020939093013593505050565b60008060408385031215612aa857600080fd5b50508035926020909101359150565b600080600060608486031215612acc57600080fd5b8335612ad781612a44565b92506020840135612ae781612a44565b929592945050506040919091013590565b600060208284031215612b0a57600080fd5b8135611ebb81612a44565b634e487b7160e01b600052604160045260246000fd5b604051610120810167ffffffffffffffff81118282101715612b4f57612b4f612b15565b60405290565b604051601f8201601f1916810167ffffffffffffffff81118282101715612b7e57612b7e612b15565b604052919050565b600067ffffffffffffffff821115612ba057612ba0612b15565b5060051b60200190565b600082601f830112612bbb57600080fd5b81356020612bd0612bcb83612b86565b612b55565b82815260059290921b84018101918181019086841115612bef57600080fd5b8286015b84811015612c13578035612c0681612a44565b8352918301918301612bf3565b509695505050505050565b600082601f830112612c2f57600080fd5b81356020612c3f612bcb83612b86565b82815260059290921b84018101918181019086841115612c5e57600080fd5b8286015b84811015612c135780358352918301918301612c62565b8015158114610aab57600080fd5b8035612a6481612c79565b60006020808385031215612ca557600080fd5b823567ffffffffffffffff80821115612cbd57600080fd5b818501915085601f830112612cd157600080fd5b8135612cdf612bcb82612b86565b81815260059190911b83018401908481019088831115612cfe57600080fd5b8585015b83811015612e2157803585811115612d1957600080fd5b8601610120818c03601f1901811315612d3157600080fd5b612d39612b2b565b8983013588811115612d4a57600080fd5b612d588e8c83870101612baa565b825250604083013588811115612d6d57600080fd5b612d7b8e8c83870101612c1e565b8b83015250606083013588811115612d935760008081fd5b612da18e8c83870101612baa565b60408301525060808084013589811115612dbb5760008081fd5b612dc98f8d83880101612c1e565b60608401525060a0612ddc818601612c87565b9183019190915260c0848101359183019190915260e0808501359183019190915261010080850135918301919091529190920135908201528352918601918601612d02565b5098975050505050505050565b60008060408385031215612e4157600080fd5b8235612e4c81612a44565b91506020830135612e5c81612c79565b809150509250929050565b60008060008060808587031215612e7d57600080fd5b8435612e8881612a44565b9350602085810135612e9981612a44565b935060408601359250606086013567ffffffffffffffff80821115612ebd57600080fd5b818801915088601f830112612ed157600080fd5b813581811115612ee357612ee3612b15565b612ef5601f8201601f19168501612b55565b91508082528984828501011115612f0b57600080fd5b808484018584013760008482840101525080935050505092959194509250565b60008060408385031215612f3e57600080fd5b8235612f4981612a44565b91506020830135612e5c81612a44565b600080600080600080600060c0888a031215612f7457600080fd5b8735965060208801359550604088013567ffffffffffffffff80821115612f9a57600080fd5b818a0191508a601f830112612fae57600080fd5b813581811115612fbd57600080fd5b8b6020828501011115612fcf57600080fd5b602083019750809650505050612fe760608901612c87565b9250612ff560808901612a59565b915060a0880135905092959891949750929550565b600181811c9082168061301e57607f821691505b60208210810361303e57634e487b7160e01b600052602260045260246000fd5b50919050565b634e487b7160e01b600052601160045260246000fd5b808202811582820484141761067457610674613044565b60008261308e57634e487b7160e01b600052601260045260246000fd5b500490565b8082018082111561067457610674613044565b6020808252602a908201527f4e4654436f6c6c656374696f6e3a204d617820737570706c79206d75737420626040820152696520677265617465722160b01b606082015260800190565b634e487b7160e01b600052603260045260246000fd5b60006001820161311857613118613044565b5060010190565b600081518084526020808501945080840160005b838110156131585781516001600160a01b031687529582019590820190600101613133565b509495945050505050565b600081518084526020808501945080840160005b8381101561315857815187529582019590820190600101613177565b60006101408c83528060208401526131ad8184018d61311f565b905082810360408401526131c1818c613163565b905082810360608401526131d5818b61311f565b905082810360808401526131e9818a613163565b97151560a0840152505060c081019490945260e08401929092526101008301526101209091015295945050505050565b8054600090600181811c908083168061323357607f831692505b6020808410820361325457634e487b7160e01b600052602260045260246000fd5b818015613268576001811461327d576132aa565b60ff19861689528415158502890196506132aa565b60008881526020902060005b868110156132a25781548b820152908501908301613289565b505084890196505b50505050505092915050565b60006132c28286613219565b84516132d28183602089016129c8565b6132de81830186613219565b979650505050505050565b6000602082840312156132fb57600080fd5b5051919050565b60006020828403121561331457600080fd5b8151611ebb81612c79565b6001600160a01b0385811682528416602082015260408101839052608060608201819052600090613352908301846129ec565b9695505050505050565b60006020828403121561336e57600080fd5b8151611ebb81612995565b8181038181111561067457610674613044565b60006020828403121561339e57600080fd5b8151611ebb81612a4456feddf252ad1be2c89b69c2b068fc378daa952ba7f163c4a11628f55a4df523b3efa2646970667358221220749c8adf67871641c81e1f6ee1f3e752a69fc5fc3e9090504bd6b8af733df4d264736f6c63430008110033",
  "immutableReferences": {},
  "source": "// SPDX-License-Identifier: MIT\npragma solidity ^0.8.13;\nimport \"@openzeppelin/contracts/token/ERC20/IERC20.sol\";\nimport \"erc721a/contracts/ERC721A.sol\";\nimport \"@openzeppelin/contracts/token/common/ERC2981.sol\";\nimport \"@openzeppelin/contracts/access/Ownable.sol\";\n\n//Interface\ninterface INFTLaunchPad {\n    function getBrokerage(address currency) external view returns (int256);\n\n    function brokerAddress() external view returns (address);\n\n    function getPublicKey() external view returns (address);\n}\n\ncontract NFTCollection is ERC721A, ERC2981, Ownable {\n    uint256 public maxSupply; //Set the maximum supply\n    string baseURI; //Set the Base URI\n    string baseURISuffix = \".json\"; //Set the base URI Suffix\n    string public contractURI; //Set the contract URI\n    address public creator; //Address of Creator\n    mapping(uint256 => bool) public proceedNonce; //set nonce\n    uint256 public constant DECIMAL_PRECISION = 100; //Set the Decimal Precision\n    uint256 public tokenCounter; //Set the tokenCounter\n    INFTLaunchPad public launchpad; //Set the address of launchpad\n    mapping(address => uint256) public nftMinted;\n\n    //Structs\n    struct UintArgs {\n        uint256 maxSupply;\n        uint96 royalty;\n    }\n    struct StringArgs {\n        string name;\n        string symbol;\n        string baseURI;\n        string contractURI;\n    }\n    struct Phase {\n        mapping(address => uint256) currenciesPrice;\n        mapping(address => uint256) whitelistCurrencyPrice;\n        mapping(address => bool) currencies;\n        mapping(address => bool) whiteListCurrencies;\n        bool isWhitelisted;\n        uint256 startTime;\n        uint256 endTime;\n        uint256 WhiteListStartTime;\n        uint256 WhiteListEndTime;\n        uint256 maxNFTPerUser;\n        uint256 maxQuantity;\n    }\n\n    struct PhaseArgs {\n        address[] currencies;\n        uint256[] currenciesPrice;\n        address[] whiteListCurrencies;\n        uint256[] whiteListCurrenciesPrice;\n        bool isWhiteListed;\n        uint256 WhiteListStartTime;\n        uint256 WhiteListEndTime;\n        uint256 maxNFTPerUser;\n        uint256 maxQuantity;\n    }\n\n    mapping(uint256 => Phase) phases;\n\n    event MintRange(address currencys, uint256 startRange, uint256 endRange);\n\n    event CollecctionPhase(\n        uint256 phaseId,\n        address[] Currencies,\n        uint256[] currenciesPrice,\n        address[] whiteListCurrencies,\n        uint256[] whiteListCurrenciesPrice,\n        bool isWhitelisted,\n        uint256 WhiteListStartTime,\n        uint256 WhiteListEndTime,\n        uint256 maxNFTPerUser,\n        uint256 maxQuantity\n    );\n\n    constructor(\n        UintArgs memory _uints,\n        address _creator,\n        StringArgs memory _strings,\n        PhaseArgs[] memory _phaseArgs\n    ) ERC721A(_strings.name, _strings.symbol) {\n        maxSupply = _uints.maxSupply;\n        creator = _creator;\n        baseURI = _strings.baseURI;\n        contractURI = _strings.contractURI;\n        launchpad = INFTLaunchPad(msg.sender);\n        _setDefaultRoyalty(creator, _uints.royalty);\n        _transferOwnership(creator);\n        _phases(_phaseArgs);\n    }\n\n    function _phases(PhaseArgs[] memory _phaseArgs) public {\n        for (uint256 i = 0; i < _phaseArgs.length; i++) {\n            require(\n                _phaseArgs[i].currencies.length ==\n                    _phaseArgs[i].currenciesPrice.length\n            );\n            require(\n                _phaseArgs[i].whiteListCurrencies.length ==\n                    _phaseArgs[i].whiteListCurrenciesPrice.length\n            );\n            for (uint256 j = 0; j < _phaseArgs[i].currencies.length; j++) {\n                phases[i].currenciesPrice[\n                    _phaseArgs[i].currencies[j]\n                ] = _phaseArgs[i].currenciesPrice[j];\n\n                if (_phaseArgs[i].currenciesPrice[j] == 0) {\n                    phases[i].currencies[_phaseArgs[i].currencies[j]] = true;\n                }\n            }\n            for (\n                uint256 j = 0;\n                j < _phaseArgs[i].whiteListCurrencies.length;\n                j++\n            ) {\n                phases[i].whitelistCurrencyPrice[\n                    _phaseArgs[i].whiteListCurrencies[j]\n                ] = _phaseArgs[i].whiteListCurrenciesPrice[j];\n                if (_phaseArgs[i].whiteListCurrenciesPrice[j] == 0) {\n                    phases[i].whiteListCurrencies[\n                        _phaseArgs[i].whiteListCurrencies[j]\n                    ] = true;\n                }\n            }\n\n            emit CollecctionPhase(\n                i,\n                _phaseArgs[i].currencies,\n                _phaseArgs[i].currenciesPrice,\n                _phaseArgs[i].whiteListCurrencies,\n                _phaseArgs[i].whiteListCurrenciesPrice,\n                _phaseArgs[i].isWhiteListed,\n                _phaseArgs[i].WhiteListStartTime,\n                _phaseArgs[i].WhiteListEndTime,\n                _phaseArgs[i].maxNFTPerUser,\n                _phaseArgs[i].maxQuantity\n            );\n        }\n    }\n\n    function _startTokenId() internal view virtual override returns (uint256) {\n        return 1;\n    }\n\n    function setMaxNFTPerUser(uint256 _amount, uint256 _phaseId)\n        external\n        onlyOwner\n    {\n        phases[_phaseId].maxNFTPerUser = _amount;\n    }\n\n    function setMaxQuantity(uint256 _amount, uint256 _phaseId)\n        external\n        onlyOwner\n    {\n        phases[_phaseId].maxQuantity = _amount;\n    }\n\n    function setMaxSupply(uint256 _newSupply) external onlyOwner {\n        require(\n            _newSupply < maxSupply && _newSupply >= tokenCounter,\n            \"NFTCollection: Supply Should be less than Max Supply\"\n        );\n        maxSupply = _newSupply;\n    }\n\n    /**\n     *@dev Method to generate signer.\n     *@notice This method is used to provide signer.\n     *@param hash: Name of hash is used to generate the signer.\n     *@param _signature: Name of _signature is used to generate the signer.\n     @return Signer address.\n    */\n    function getSigner(bytes32 hash, bytes memory _signature)\n        private\n        pure\n        returns (address)\n    {\n        (bytes32 r, bytes32 s, uint8 v) = splitSignature(_signature);\n        return\n            ecrecover(\n                keccak256(\n                    abi.encodePacked(\"\\x19Ethereum Signed Message:\\n32\", hash)\n                ),\n                v,\n                r,\n                s\n            );\n    }\n\n    /**\n     *@dev Method to get Brokerage.\n     *@notice This method is used to get Brokerage.\n     *@param _currency: address of Currency.\n     */\n    function _getBrokerage(address _currency) private view returns (uint256) {\n        int256 _brokerage = launchpad.getBrokerage(_currency);\n        require(_brokerage != 0, \"NFTCollection: Currency doesn't supported.\");\n        if (_brokerage < 0) {\n            _brokerage = 0;\n        }\n        return uint256(_brokerage);\n    }\n\n    /**\n     *@dev Method to get PublicKey\n     *@return It will return PublicKey\n     */\n    function _getPublicKey() private view returns (address) {\n        return launchpad.getPublicKey();\n    }\n\n    /**\n     *@dev Method to get Broker address\n     *@return Return the address of broker\n     */\n    function _getBrokerAddress() private view returns (address) {\n        return launchpad.brokerAddress();\n    }\n\n    /**\n     *@dev Method to verify WhiteList user.\n     *@notice This method is used to verify whitelist user.\n     *@param whitelistUser: Address of whitelistUser.\n     \n     *@param nonce: nonce to be generated while minting.\n     *@param _isWhiteListed: User is whitelisted or not.\n     *@param _signature: _signature is used to generate the signer.\n     *@return bool value if user is verified.\n     */\n    function verifyWhiteListUser(\n        address whitelistUser,\n        uint256 nonce,\n        bool _isWhiteListed,\n        bytes memory _signature,\n        uint256 phaseId\n    ) private view returns (bool) {\n        bytes32 hash = keccak256(\n            abi.encodePacked(\n                address(this),\n                launchpad,\n                whitelistUser,\n                nonce,\n                _isWhiteListed,\n                phaseId\n            )\n        );\n        address verifiedUser = getSigner(hash, _signature);\n        require(\n            verifiedUser == _getPublicKey(),\n            \"NFTCollection: User is not verified!\"\n        );\n        return _isWhiteListed;\n    }\n\n    /**\n     *@dev Method to split the signature.\n     *@param sig: Name of _signature is used to generate the signer.\n     */\n    function splitSignature(bytes memory sig)\n        private\n        pure\n        returns (\n            bytes32 r,\n            bytes32 s,\n            uint8 v\n        )\n    {\n        require(sig.length == 65, \"NFTCollection: invalid signature length.\");\n        assembly {\n            r := mload(add(sig, 32))\n            s := mload(add(sig, 64))\n            v := byte(0, mload(add(sig, 96)))\n        }\n    }\n\n    function _sendNative(uint256 brokerage, uint256 _amount) private {\n        if (brokerage > 0) {\n            uint256 brokerageAmount = (_amount * uint256(brokerage)) /\n                (100 * DECIMAL_PRECISION);\n            payable(_getBrokerAddress()).transfer(brokerageAmount);\n            uint256 remainingAmount = _amount - brokerageAmount;\n            payable(creator).transfer(remainingAmount);\n        } else {\n            payable(creator).transfer(_amount);\n        }\n    }\n\n    function _sendERC20(\n        uint256 brokerage,\n        uint256 _amount,\n        address _currency\n    ) private {\n        require(\n            IERC20(_currency).allowance(msg.sender, address(this)) >= _amount,\n            \"NFTCollection: Insufficient fund allowance\"\n        );\n        if (brokerage > 0) {\n            uint256 brokerageAmount = (_amount * uint256(brokerage)) /\n                (100 * DECIMAL_PRECISION);\n            IERC20(_currency).transferFrom(\n                msg.sender,\n                _getBrokerAddress(),\n                brokerageAmount\n            );\n            uint256 remainingAmount = _amount - brokerageAmount;\n            IERC20(_currency).transferFrom(msg.sender, address(this), remainingAmount);\n        } else {\n            IERC20(_currency).transferFrom(msg.sender, address(this), _amount);\n        }\n    }\n\n    /**\n     *@dev Method to mint the NFT.\n     *@notice This method is used to mint the NFT.\n     *@param _quantity: NFT quantity to be minted.\n     *@param nonce: nonce to be generated while minting.\n     *@param _signature: _signature is used to generate the signer.\n     *@param _isWhiteListed: User is whitelisted or not.\n     */\n    function mint(\n        uint256 _quantity,\n        uint256 nonce,\n        bytes calldata _signature,\n        bool _isWhiteListed,\n        address _currency,\n        uint256 _phaseId\n    ) external payable {\n        uint256 startRange = tokenCounter + 1;\n        uint256 endRange = tokenCounter + _quantity;\n\n        require(\n            phases[_phaseId].startTime < block.timestamp &&\n                phases[_phaseId].endTime > block.timestamp,\n            \"NFTCollection: Phase not ended yet.\"\n        );\n\n        require(\n            tokenCounter + _quantity <= maxSupply,\n            \"NFTCollection: Max supply must be greater!\"\n        );\n        tokenCounter += _quantity;\n        require(\n            nftMinted[msg.sender] + _quantity <= phases[_phaseId].maxNFTPerUser,\n            \"NFTCollection: Max limit reached\"\n        );\n        require(!proceedNonce[nonce], \"NFTCollection: Nonce already proceed!\");\n\n        require(\n            _quantity > 0 && _quantity <= phases[_phaseId].maxQuantity,\n            \"NFTCollection: Max quantity reached\"\n        );\n        bool WhiteListed = verifyWhiteListUser(\n            msg.sender,\n            nonce,\n            _isWhiteListed,\n            _signature,\n            _phaseId\n        );\n\n        if (\n            WhiteListed &&\n            block.timestamp >= phases[_phaseId].WhiteListStartTime &&\n            block.timestamp <= phases[_phaseId].WhiteListEndTime\n        ) {\n            // Phase storage _phase = phases[_phaseId];\n            require(\n                phases[_phaseId].currenciesPrice[_currency] > 0 ||\n                    phases[_phaseId].currencies[_currency],\n                \"NFTCollection: Currency not Supported for whiteList minting\"\n            );\n            uint256 whitelistedFee = phases[_phaseId].whitelistCurrencyPrice[\n                _currency\n            ];\n            if (whitelistedFee > 0) {\n                uint256 brokerage = _getBrokerage(address(_currency));\n                if (address(_currency) == address(0)) {\n                    require(\n                        msg.value >= whitelistedFee * _quantity,\n                        \"NFTCollection: Whitelisted amount is insufficient.\"\n                    );\n                    _sendNative(brokerage, msg.value);\n                } else {\n                    _sendERC20(\n                        brokerage,\n                        whitelistedFee * _quantity,\n                        _currency\n                    );\n                }\n            }\n        } else {\n            require(\n                phases[_phaseId].currenciesPrice[_currency] > 0 ||\n                    phases[_phaseId].currencies[_currency],\n                \"NFTCollection: Currency not Supported for public minting\"\n            );\n\n            uint256 mintFee = phases[_phaseId].currenciesPrice[_currency];\n\n            if (mintFee > 0) {\n                uint256 brokerage = _getBrokerage(address(_currency));\n                require(\n                    block.timestamp > phases[_phaseId].WhiteListEndTime,\n                    \"NFTCollection: Whitelist sale not ended yet.\"\n                );\n                if (address(_currency) == address(0)) {\n                    require(\n                        msg.value >= mintFee * _quantity,\n                        \"NFTCollection: amount is insufficient.\"\n                    );\n                    _sendNative(brokerage, msg.value);\n                } else {\n                    _sendERC20(brokerage, mintFee * _quantity, _currency);\n                }\n            }\n        }\n        _mint(msg.sender, _quantity);\n        nftMinted[msg.sender] += _quantity;\n        proceedNonce[nonce] = true;\n        emit MintRange(_currency, startRange, endRange);\n    }\n\n    /**\n     *@dev Method to burn NFT.\n     *@param tokenId: tokenId to be burned.\n     */\n    function burn(uint256 tokenId) external {\n        require(\n            ownerOf(tokenId) == msg.sender,\n            \"NFTCollection: Caller is not the token owner\"\n        );\n        _burn(tokenId, false);\n    }\n\n    /**\n     *@dev Method to mint by only owner.\n     *@notice This method will allow onlyOwner to mint.\n     *@param _quantity: NFT quantity to be minted.\n     */\n    function mintByOwner(uint256 _quantity) external onlyOwner {\n        require(\n            tokenCounter + _quantity <= maxSupply,\n            \"NFTCollection: Max supply must be greater!\"\n        );\n        tokenCounter += _quantity;\n        _mint(msg.sender, _quantity);\n    }\n\n    /**\n     *@dev Method to withdraw ERC20 token.\n     *@notice This method will allow only owner to withdraw ERC20 token.\n     *@param _receiver: address of receiver\n     */\n    function withdrawERC20Token(address _receiver, address _currency)\n        external\n        onlyOwner\n    {\n        IERC20 currency = IERC20(_currency);\n        require(\n            currency.balanceOf(address(this)) > 0,\n            \"NFTCollection: Insufficient fund\"\n        );\n        currency.transfer(_receiver, currency.balanceOf(address(this)));\n    }\n\n    /**\n     *@dev Method to withdraw native currency.\n     *@notice This method will allow only owner to withdraw currency.\n     *@param _receiver: address of receiver\n     */\n    function withdrawBNB(address _receiver) external onlyOwner {\n        payable(_receiver).transfer(balanceOf(address(this)));\n    }\n\n    function _baseURI() internal view virtual override returns (string memory) {\n        return baseURI;\n    }\n\n    function _baseURISuffix() internal view virtual returns (string memory) {\n        return baseURISuffix;\n    }\n\n    function supportsInterface(bytes4 interfaceId)\n        public\n        view\n        virtual\n        override(ERC721A, ERC2981)\n        returns (bool)\n    {\n        return\n            ERC721A.supportsInterface(interfaceId) ||\n            ERC2981.supportsInterface(interfaceId);\n    }\n\n    function tokenURI(uint256 tokenId)\n        public\n        view\n        virtual\n        override\n        returns (string memory)\n    {\n        if (!_exists(tokenId)) revert URIQueryForNonexistentToken();\n        return\n            bytes(baseURI).length != 0\n                ? string(\n                    abi.encodePacked(baseURI, _toString(tokenId), baseURISuffix)\n                )\n                : \"\";\n    }\n}\n",
  "sourcePath": "/Users/mac/Desktop/truffle-project-ad/contracts/NFTCollection.sol",
  "compiler": {
    "name": "solc",
    "version": "0.8.17+commit.8df45f5f.Emscripten.clang"
  },
  "schemaVersion": "3.4.11",
  "updatedAt": "2022-12-16T11:04:52.672Z",
  "networkType": "ethereum",
  "devdoc": {
    "kind": "dev",
    "methods": {
      "approve(address,uint256)": {
        "details": "Gives permission to `to` to transfer `tokenId` token to another account. The approval is cleared when the token is transferred. Only a single account can be approved at a time, so approving the zero address clears previous approvals. Requirements: - The caller must own the token or be an approved operator. - `tokenId` must exist. Emits an {Approval} event."
      },
      "balanceOf(address)": {
        "details": "Returns the number of tokens in `owner`'s account."
      },
      "burn(uint256)": {
        "details": "Method to burn NFT.",
        "params": {
          "tokenId": ": tokenId to be burned."
        }
      },
      "getApproved(uint256)": {
        "details": "Returns the account approved for `tokenId` token. Requirements: - `tokenId` must exist."
      },
      "isApprovedForAll(address,address)": {
        "details": "Returns if the `operator` is allowed to manage all of the assets of `owner`. See {setApprovalForAll}."
      },
      "mint(uint256,uint256,bytes,bool,address,uint256)": {
        "details": "Method to mint the NFT.",
        "params": {
          "_isWhiteListed": ": User is whitelisted or not.",
          "_quantity": ": NFT quantity to be minted.",
          "_signature": ": _signature is used to generate the signer.",
          "nonce": ": nonce to be generated while minting."
        }
      },
      "mintByOwner(uint256)": {
        "details": "Method to mint by only owner.",
        "params": {
          "_quantity": ": NFT quantity to be minted."
        }
      },
      "name()": {
        "details": "Returns the token collection name."
      },
      "owner()": {
        "details": "Returns the address of the current owner."
      },
      "ownerOf(uint256)": {
        "details": "Returns the owner of the `tokenId` token. Requirements: - `tokenId` must exist."
      },
      "renounceOwnership()": {
        "details": "Leaves the contract without owner. It will not be possible to call `onlyOwner` functions anymore. Can only be called by the current owner. NOTE: Renouncing ownership will leave the contract without an owner, thereby removing any functionality that is only available to the owner."
      },
      "royaltyInfo(uint256,uint256)": {
        "details": "Returns how much royalty is owed and to whom, based on a sale price that may be denominated in any unit of exchange. The royalty amount is denominated and should be paid in that same unit of exchange."
      },
      "safeTransferFrom(address,address,uint256)": {
        "details": "Equivalent to `safeTransferFrom(from, to, tokenId, '')`."
      },
      "safeTransferFrom(address,address,uint256,bytes)": {
        "details": "Safely transfers `tokenId` token from `from` to `to`. Requirements: - `from` cannot be the zero address. - `to` cannot be the zero address. - `tokenId` token must exist and be owned by `from`. - If the caller is not `from`, it must be approved to move this token by either {approve} or {setApprovalForAll}. - If `to` refers to a smart contract, it must implement {IERC721Receiver-onERC721Received}, which is called upon a safe transfer. Emits a {Transfer} event."
      },
      "setApprovalForAll(address,bool)": {
        "details": "Approve or remove `operator` as an operator for the caller. Operators can call {transferFrom} or {safeTransferFrom} for any token owned by the caller. Requirements: - The `operator` cannot be the caller. Emits an {ApprovalForAll} event."
      },
      "symbol()": {
        "details": "Returns the token collection symbol."
      },
      "tokenURI(uint256)": {
        "details": "Returns the Uniform Resource Identifier (URI) for `tokenId` token."
      },
      "totalSupply()": {
        "details": "Returns the total number of tokens in existence. Burned tokens will reduce the count. To get the total number of tokens minted, please see {_totalMinted}."
      },
      "transferFrom(address,address,uint256)": {
        "details": "Transfers `tokenId` from `from` to `to`. Requirements: - `from` cannot be the zero address. - `to` cannot be the zero address. - `tokenId` token must be owned by `from`. - If the caller is not `from`, it must be approved to move this token by either {approve} or {setApprovalForAll}. Emits a {Transfer} event."
      },
      "transferOwnership(address)": {
        "details": "Transfers ownership of the contract to a new account (`newOwner`). Can only be called by the current owner."
      },
      "withdrawBNB(address)": {
        "details": "Method to withdraw native currency.",
        "params": {
          "_receiver": ": address of receiver"
        }
      },
      "withdrawERC20Token(address,address)": {
        "details": "Method to withdraw ERC20 token.",
        "params": {
          "_receiver": ": address of receiver"
        }
      }
    },
    "version": 1
  },
  "userdoc": {
    "errors": {
      "ApprovalCallerNotOwnerNorApproved()": [
        {
          "notice": "The caller must own the token or be an approved operator."
        }
      ],
      "ApprovalQueryForNonexistentToken()": [
        {
          "notice": "The token does not exist."
        }
      ],
      "BalanceQueryForZeroAddress()": [
        {
          "notice": "Cannot query the balance for the zero address."
        }
      ],
      "MintERC2309QuantityExceedsLimit()": [
        {
          "notice": "The `quantity` minted with ERC2309 exceeds the safety limit."
        }
      ],
      "MintToZeroAddress()": [
        {
          "notice": "Cannot mint to the zero address."
        }
      ],
      "MintZeroQuantity()": [
        {
          "notice": "The quantity of tokens minted must be more than zero."
        }
      ],
      "OwnerQueryForNonexistentToken()": [
        {
          "notice": "The token does not exist."
        }
      ],
      "OwnershipNotInitializedForExtraData()": [
        {
          "notice": "The `extraData` cannot be set on an unintialized ownership slot."
        }
      ],
      "TransferCallerNotOwnerNorApproved()": [
        {
          "notice": "The caller must own the token or be an approved operator."
        }
      ],
      "TransferFromIncorrectOwner()": [
        {
          "notice": "The token must be owned by `from`."
        }
      ],
      "TransferToNonERC721ReceiverImplementer()": [
        {
          "notice": "Cannot safely transfer to a contract that does not implement the ERC721Receiver interface."
        }
      ],
      "TransferToZeroAddress()": [
        {
          "notice": "Cannot transfer to the zero address."
        }
      ],
      "URIQueryForNonexistentToken()": [
        {
          "notice": "The token does not exist."
        }
      ]
    },
    "kind": "user",
    "methods": {
      "mint(uint256,uint256,bytes,bool,address,uint256)": {
        "notice": "This method is used to mint the NFT."
      },
      "mintByOwner(uint256)": {
        "notice": "This method will allow onlyOwner to mint."
      },
      "withdrawBNB(address)": {
        "notice": "This method will allow only owner to withdraw currency."
      },
      "withdrawERC20Token(address,address)": {
        "notice": "This method will allow only owner to withdraw ERC20 token."
      }
    },
    "version": 1
  }
}