{
  "contractName": "RoleManager",
  "abi": [
    {
      "anonymous": false,
      "inputs": [
        {
          "indexed": false,
          "internalType": "uint8",
          "name": "version",
          "type": "uint8"
        }
      ],
      "name": "Initialized",
      "type": "event"
    },
    {
      "anonymous": false,
      "inputs": [
        {
          "indexed": true,
          "internalType": "address",
          "name": "previousOwner",
          "type": "address"
        },
        {
          "indexed": true,
          "internalType": "address",
          "name": "newOwner",
          "type": "address"
        }
      ],
      "name": "OwnershipTransferred",
      "type": "event"
    },
    {
      "anonymous": false,
      "inputs": [
        {
          "indexed": true,
          "internalType": "bytes32",
          "name": "role",
          "type": "bytes32"
        },
        {
          "indexed": true,
          "internalType": "bytes32",
          "name": "previousAdminRole",
          "type": "bytes32"
        },
        {
          "indexed": true,
          "internalType": "bytes32",
          "name": "newAdminRole",
          "type": "bytes32"
        }
      ],
      "name": "RoleAdminChanged",
      "type": "event"
    },
    {
      "anonymous": false,
      "inputs": [
        {
          "indexed": true,
          "internalType": "bytes32",
          "name": "role",
          "type": "bytes32"
        },
        {
          "indexed": true,
          "internalType": "address",
          "name": "account",
          "type": "address"
        },
        {
          "indexed": true,
          "internalType": "address",
          "name": "sender",
          "type": "address"
        }
      ],
      "name": "RoleGranted",
      "type": "event"
    },
    {
      "anonymous": false,
      "inputs": [
        {
          "indexed": true,
          "internalType": "bytes32",
          "name": "role",
          "type": "bytes32"
        },
        {
          "indexed": true,
          "internalType": "address",
          "name": "account",
          "type": "address"
        },
        {
          "indexed": true,
          "internalType": "address",
          "name": "sender",
          "type": "address"
        }
      ],
      "name": "RoleRevoked",
      "type": "event"
    },
    {
      "inputs": [],
      "name": "DEFAULT_ADMIN_ROLE",
      "outputs": [
        {
          "internalType": "bytes32",
          "name": "",
          "type": "bytes32"
        }
      ],
      "stateMutability": "view",
      "type": "function"
    },
    {
      "inputs": [
        {
          "internalType": "bytes32",
          "name": "role",
          "type": "bytes32"
        }
      ],
      "name": "getRoleAdmin",
      "outputs": [
        {
          "internalType": "bytes32",
          "name": "",
          "type": "bytes32"
        }
      ],
      "stateMutability": "view",
      "type": "function"
    },
    {
      "inputs": [
        {
          "internalType": "bytes32",
          "name": "role",
          "type": "bytes32"
        },
        {
          "internalType": "uint256",
          "name": "index",
          "type": "uint256"
        }
      ],
      "name": "getRoleMember",
      "outputs": [
        {
          "internalType": "address",
          "name": "",
          "type": "address"
        }
      ],
      "stateMutability": "view",
      "type": "function"
    },
    {
      "inputs": [
        {
          "internalType": "bytes32",
          "name": "role",
          "type": "bytes32"
        }
      ],
      "name": "getRoleMemberCount",
      "outputs": [
        {
          "internalType": "uint256",
          "name": "",
          "type": "uint256"
        }
      ],
      "stateMutability": "view",
      "type": "function"
    },
    {
      "inputs": [
        {
          "internalType": "bytes32",
          "name": "role",
          "type": "bytes32"
        },
        {
          "internalType": "address",
          "name": "account",
          "type": "address"
        }
      ],
      "name": "grantRole",
      "outputs": [],
      "stateMutability": "nonpayable",
      "type": "function"
    },
    {
      "inputs": [
        {
          "internalType": "bytes32",
          "name": "role",
          "type": "bytes32"
        },
        {
          "internalType": "address",
          "name": "account",
          "type": "address"
        }
      ],
      "name": "hasRole",
      "outputs": [
        {
          "internalType": "bool",
          "name": "",
          "type": "bool"
        }
      ],
      "stateMutability": "view",
      "type": "function"
    },
    {
      "inputs": [],
      "name": "operatorRole",
      "outputs": [
        {
          "internalType": "bytes32",
          "name": "",
          "type": "bytes32"
        }
      ],
      "stateMutability": "view",
      "type": "function"
    },
    {
      "inputs": [],
      "name": "owner",
      "outputs": [
        {
          "internalType": "address",
          "name": "",
          "type": "address"
        }
      ],
      "stateMutability": "view",
      "type": "function"
    },
    {
      "inputs": [],
      "name": "renounceOwnership",
      "outputs": [],
      "stateMutability": "nonpayable",
      "type": "function"
    },
    {
      "inputs": [
        {
          "internalType": "bytes32",
          "name": "role",
          "type": "bytes32"
        },
        {
          "internalType": "address",
          "name": "account",
          "type": "address"
        }
      ],
      "name": "renounceRole",
      "outputs": [],
      "stateMutability": "nonpayable",
      "type": "function"
    },
    {
      "inputs": [
        {
          "internalType": "bytes32",
          "name": "role",
          "type": "bytes32"
        },
        {
          "internalType": "address",
          "name": "account",
          "type": "address"
        }
      ],
      "name": "revokeRole",
      "outputs": [],
      "stateMutability": "nonpayable",
      "type": "function"
    },
    {
      "inputs": [
        {
          "internalType": "bytes4",
          "name": "interfaceId",
          "type": "bytes4"
        }
      ],
      "name": "supportsInterface",
      "outputs": [
        {
          "internalType": "bool",
          "name": "",
          "type": "bool"
        }
      ],
      "stateMutability": "view",
      "type": "function"
    },
    {
      "inputs": [],
      "name": "initialize1",
      "outputs": [],
      "stateMutability": "nonpayable",
      "type": "function"
    },
    {
      "inputs": [
        {
          "internalType": "address[]",
          "name": "operators",
          "type": "address[]"
        }
      ],
      "name": "addOperators",
      "outputs": [],
      "stateMutability": "nonpayable",
      "type": "function"
    },
    {
      "inputs": [
        {
          "internalType": "address[]",
          "name": "operators",
          "type": "address[]"
        }
      ],
      "name": "removeOperators",
      "outputs": [],
      "stateMutability": "nonpayable",
      "type": "function"
    },
    {
      "inputs": [
        {
          "internalType": "address",
          "name": "newOwner",
          "type": "address"
        }
      ],
      "name": "transferOwnership",
      "outputs": [],
      "stateMutability": "nonpayable",
      "type": "function"
    }
  ],
  "bytecode": "0x608060405234801561001057600080fd5b506110a7806100206000396000f3fe608060405234801561001057600080fd5b50600436106101005760003560e01c80639010d07c11610097578063ca15c87311610066578063ca15c87314610213578063d365a37714610226578063d547741f14610239578063f2fde38b1461024c57600080fd5b80639010d07c146101d257806391d14854146101e5578063a07aea1c146101f8578063a217fddf1461020b57600080fd5b806336568abe116100d357806336568abe1461017b57806347503b3d1461018e578063715018a6146101a55780638da5cb5b146101ad57600080fd5b806301ffc9a7146101055780632095170b1461012d578063248a9ca3146101375780632f2ff15d14610168575b600080fd5b610118610113366004610d08565b61025f565b60405190151581526020015b60405180910390f35b61013561028a565b005b61015a610145366004610d32565b60009081526065602052604090206001015490565b604051908152602001610124565b610135610176366004610d67565b6103ce565b610135610189366004610d67565b6103f8565b61015a6c4f70657261746f7220526f6c6560981b81565b610135610476565b60c9546001600160a01b03165b6040516001600160a01b039091168152602001610124565b6101ba6101e0366004610d93565b61048a565b6101186101f3366004610d67565b6104a9565b610135610206366004610dcb565b6104d4565b61015a600081565b61015a610221366004610d32565b61052d565b610135610234366004610dcb565b610544565b610135610247366004610d67565b61059d565b61013561025a366004610e90565b6105c2565b60006001600160e01b03198216635a05180f60e01b1480610284575061028482610668565b92915050565b600054610100900460ff16158080156102aa5750600054600160ff909116105b806102c45750303b1580156102c4575060005460ff166001145b61032c5760405162461bcd60e51b815260206004820152602e60248201527f496e697469616c697a61626c653a20636f6e747261637420697320616c72656160448201526d191e481a5b9a5d1a585b1a5e995960921b60648201526084015b60405180910390fd5b6000805460ff19166001179055801561034f576000805461ff0019166101001790555b61035761069d565b61035f6106cc565b61036a6000336106f3565b6103856c4f70657261746f7220526f6c6560981b6000610715565b80156103cb576000805461ff0019169055604051600181527f7f26b83ff96e1f2b6a682f133852f6798a09c465da95921460cefb38474024989060200160405180910390a15b50565b6000828152606560205260409020600101546103e981610760565b6103f383836106f3565b505050565b6001600160a01b03811633146104685760405162461bcd60e51b815260206004820152602f60248201527f416363657373436f6e74726f6c3a2063616e206f6e6c792072656e6f756e636560448201526e103937b632b9903337b91039b2b63360891b6064820152608401610323565b610472828261076a565b5050565b61047e61078c565b61048860006107e6565b565b60008281526097602052604081206104a29083610838565b9392505050565b60009182526065602090815260408084206001600160a01b0393909316845291905290205460ff1690565b6104dc61078c565b60005b81518110156104725761051b6c4f70657261746f7220526f6c6560981b83838151811061050e5761050e610eab565b60200260200101516106f3565b8061052581610ed7565b9150506104df565b600081815260976020526040812061028490610844565b61054c61078c565b60005b81518110156104725761058b6c4f70657261746f7220526f6c6560981b83838151811061057e5761057e610eab565b602002602001015161076a565b8061059581610ed7565b91505061054f565b6000828152606560205260409020600101546105b881610760565b6103f3838361076a565b6105ca61078c565b6001600160a01b03811661062f5760405162461bcd60e51b815260206004820152602660248201527f4f776e61626c653a206e6577206f776e657220697320746865207a65726f206160448201526564647265737360d01b6064820152608401610323565b610638816107e6565b6106436000826106f3565b61065d6c4f70657261746f7220526f6c6560981b3361076a565b6103cb60003361076a565b60006001600160e01b03198216637965db0b60e01b148061028457506301ffc9a760e01b6001600160e01b0319831614610284565b600054610100900460ff166106c45760405162461bcd60e51b815260040161032390610ef0565b61048861084e565b600054610100900460ff166104885760405162461bcd60e51b815260040161032390610ef0565b6106fd828261087e565b60008281526097602052604090206103f39082610904565b600082815260656020526040808220600101805490849055905190918391839186917fbd79b86ffe0ab8e8776151514217cd7cacd52c909f66475c3af44e129f0b00ff9190a4505050565b6103cb8133610919565b6107748282610972565b60008281526097602052604090206103f390826109d9565b60c9546001600160a01b031633146104885760405162461bcd60e51b815260206004820181905260248201527f4f776e61626c653a2063616c6c6572206973206e6f7420746865206f776e65726044820152606401610323565b60c980546001600160a01b038381166001600160a01b0319831681179093556040519116919082907f8be0079c531659141344cd1fd0a4f28419497f9722a3daafe3b4186f6b6457e090600090a35050565b60006104a283836109ee565b6000610284825490565b600054610100900460ff166108755760405162461bcd60e51b815260040161032390610ef0565b610488336107e6565b61088882826104a9565b6104725760008281526065602090815260408083206001600160a01b03851684529091529020805460ff191660011790556108c03390565b6001600160a01b0316816001600160a01b0316837f2f8788117e7eff1d82e926ec794901d17c78024a50270940304540a733656f0d60405160405180910390a45050565b60006104a2836001600160a01b038416610a18565b61092382826104a9565b6104725761093081610a67565b61093b836020610a79565b60405160200161094c929190610f5f565b60408051601f198184030181529082905262461bcd60e51b825261032391600401610fd4565b61097c82826104a9565b156104725760008281526065602090815260408083206001600160a01b0385168085529252808320805460ff1916905551339285917ff6391f5c32d9c69d2a47ea670b442974b53935d1edc7fd64eb21e047a839171b9190a45050565b60006104a2836001600160a01b038416610c15565b6000826000018281548110610a0557610a05610eab565b9060005260206000200154905092915050565b6000818152600183016020526040812054610a5f57508154600181810184556000848152602080822090930184905584548482528286019093526040902091909155610284565b506000610284565b60606102846001600160a01b03831660145b60606000610a88836002611007565b610a9390600261101e565b67ffffffffffffffff811115610aab57610aab610db5565b6040519080825280601f01601f191660200182016040528015610ad5576020820181803683370190505b509050600360fc1b81600081518110610af057610af0610eab565b60200101906001600160f81b031916908160001a905350600f60fb1b81600181518110610b1f57610b1f610eab565b60200101906001600160f81b031916908160001a9053506000610b43846002611007565b610b4e90600161101e565b90505b6001811115610bc6576f181899199a1a9b1b9c1cb0b131b232b360811b85600f1660108110610b8257610b82610eab565b1a60f81b828281518110610b9857610b98610eab565b60200101906001600160f81b031916908160001a90535060049490941c93610bbf81611031565b9050610b51565b5083156104a25760405162461bcd60e51b815260206004820181905260248201527f537472696e67733a20686578206c656e67746820696e73756666696369656e746044820152606401610323565b60008181526001830160205260408120548015610cfe576000610c39600183611048565b8554909150600090610c4d90600190611048565b9050818114610cb2576000866000018281548110610c6d57610c6d610eab565b9060005260206000200154905080876000018481548110610c9057610c90610eab565b6000918252602080832090910192909255918252600188019052604090208390555b8554869080610cc357610cc361105b565b600190038181906000526020600020016000905590558560010160008681526020019081526020016000206000905560019350505050610284565b6000915050610284565b600060208284031215610d1a57600080fd5b81356001600160e01b0319811681146104a257600080fd5b600060208284031215610d4457600080fd5b5035919050565b80356001600160a01b0381168114610d6257600080fd5b919050565b60008060408385031215610d7a57600080fd5b82359150610d8a60208401610d4b565b90509250929050565b60008060408385031215610da657600080fd5b50508035926020909101359150565b634e487b7160e01b600052604160045260246000fd5b60006020808385031215610dde57600080fd5b823567ffffffffffffffff80821115610df657600080fd5b818501915085601f830112610e0a57600080fd5b813581811115610e1c57610e1c610db5565b8060051b604051601f19603f83011681018181108582111715610e4157610e41610db5565b604052918252848201925083810185019188831115610e5f57600080fd5b938501935b82851015610e8457610e7585610d4b565b84529385019392850192610e64565b98975050505050505050565b600060208284031215610ea257600080fd5b6104a282610d4b565b634e487b7160e01b600052603260045260246000fd5b634e487b7160e01b600052601160045260246000fd5b600060018201610ee957610ee9610ec1565b5060010190565b6020808252602b908201527f496e697469616c697a61626c653a20636f6e7472616374206973206e6f74206960408201526a6e697469616c697a696e6760a81b606082015260800190565b60005b83811015610f56578181015183820152602001610f3e565b50506000910152565b7f416363657373436f6e74726f6c3a206163636f756e7420000000000000000000815260008351610f97816017850160208801610f3b565b7001034b99036b4b9b9b4b733903937b6329607d1b6017918401918201528351610fc8816028840160208801610f3b565b01602801949350505050565b6020815260008251806020840152610ff3816040850160208701610f3b565b601f01601f19169190910160400192915050565b808202811582820484141761028457610284610ec1565b8082018082111561028457610284610ec1565b60008161104057611040610ec1565b506000190190565b8181038181111561028457610284610ec1565b634e487b7160e01b600052603160045260246000fdfea2646970667358221220993604c7fff49bc5b03e70edd36128342926186ecdb497257f8389f1b2cfbed664736f6c63430008110033",
  "immutableReferences": {},
  "source": "// SPDX-License-Identifier: MIT\npragma solidity ^0.8.12;\nimport \"@openzeppelin/contracts-upgradeable/access/OwnableUpgradeable.sol\";\nimport \"@openzeppelin/contracts-upgradeable/access/AccessControlEnumerableUpgradeable.sol\";\nimport \"@openzeppelin/contracts-upgradeable/proxy/utils/Initializable.sol\";\n\ncontract RoleManager is\n    Initializable,\n    AccessControlEnumerableUpgradeable,\n    OwnableUpgradeable\n{\n    bytes32 public constant operatorRole = bytes32(\"Operator Role\");\n\n    function initialize1() public initializer {\n        __Ownable_init();\n        __AccessControl_init();\n        _grantRole(DEFAULT_ADMIN_ROLE, msg.sender);\n        _setRoleAdmin(operatorRole, DEFAULT_ADMIN_ROLE);\n    }\n\n    modifier isOperator() {\n        require(\n            hasRole(operatorRole, msg.sender) || owner() == msg.sender,\n            \"RoleManager: For operator or admin Role only\"\n        );\n        _;\n    }\n\n    function addOperators(address[] memory operators) external onlyOwner {\n        for (uint256 index = 0; index < operators.length; index++) {\n            _grantRole(operatorRole, operators[index]);\n        }\n    }\n\n    function removeOperators(address[] memory operators) external onlyOwner {\n        for (uint256 index = 0; index < operators.length; index++) {\n            _revokeRole(operatorRole, operators[index]);\n        }\n    }\n\n    function transferOwnership(address newOwner) public override onlyOwner {\n        require(\n            newOwner != address(0),\n            \"Ownable: new owner is the zero address\"\n        );\n        _transferOwnership(newOwner);\n        _grantRole(DEFAULT_ADMIN_ROLE, newOwner);\n        _revokeRole(operatorRole, msg.sender);\n        _revokeRole(DEFAULT_ADMIN_ROLE, msg.sender);\n    }\n}\n",
  "sourcePath": "/Users/mac/Desktop/truffle-project-ad/contracts/RollManager.sol",
  "compiler": {
    "name": "solc",
    "version": "0.8.17+commit.8df45f5f.Emscripten.clang"
  },
  "schemaVersion": "3.4.11",
  "updatedAt": "2022-12-16T11:03:53.775Z",
  "devdoc": {
    "kind": "dev",
    "methods": {
      "getRoleAdmin(bytes32)": {
        "details": "Returns the admin role that controls `role`. See {grantRole} and {revokeRole}. To change a role's admin, use {_setRoleAdmin}."
      },
      "getRoleMember(bytes32,uint256)": {
        "details": "Returns one of the accounts that have `role`. `index` must be a value between 0 and {getRoleMemberCount}, non-inclusive. Role bearers are not sorted in any particular way, and their ordering may change at any point. WARNING: When using {getRoleMember} and {getRoleMemberCount}, make sure you perform all queries on the same block. See the following https://forum.openzeppelin.com/t/iterating-over-elements-on-enumerableset-in-openzeppelin-contracts/2296[forum post] for more information."
      },
      "getRoleMemberCount(bytes32)": {
        "details": "Returns the number of accounts that have `role`. Can be used together with {getRoleMember} to enumerate all bearers of a role."
      },
      "grantRole(bytes32,address)": {
        "details": "Grants `role` to `account`. If `account` had not been already granted `role`, emits a {RoleGranted} event. Requirements: - the caller must have ``role``'s admin role. May emit a {RoleGranted} event."
      },
      "hasRole(bytes32,address)": {
        "details": "Returns `true` if `account` has been granted `role`."
      },
      "owner()": {
        "details": "Returns the address of the current owner."
      },
      "renounceOwnership()": {
        "details": "Leaves the contract without owner. It will not be possible to call `onlyOwner` functions anymore. Can only be called by the current owner. NOTE: Renouncing ownership will leave the contract without an owner, thereby removing any functionality that is only available to the owner."
      },
      "renounceRole(bytes32,address)": {
        "details": "Revokes `role` from the calling account. Roles are often managed via {grantRole} and {revokeRole}: this function's purpose is to provide a mechanism for accounts to lose their privileges if they are compromised (such as when a trusted device is misplaced). If the calling account had been revoked `role`, emits a {RoleRevoked} event. Requirements: - the caller must be `account`. May emit a {RoleRevoked} event."
      },
      "revokeRole(bytes32,address)": {
        "details": "Revokes `role` from `account`. If `account` had been granted `role`, emits a {RoleRevoked} event. Requirements: - the caller must have ``role``'s admin role. May emit a {RoleRevoked} event."
      },
      "supportsInterface(bytes4)": {
        "details": "See {IERC165-supportsInterface}."
      },
      "transferOwnership(address)": {
        "details": "Transfers ownership of the contract to a new account (`newOwner`). Can only be called by the current owner."
      }
    },
    "version": 1
  },
  "userdoc": {
    "kind": "user",
    "methods": {},
    "version": 1
  }
}